:100000000C943D010C9484010C9484010C948401A3
:100010000C9484010C9484010C9484010C9484014C
:100020000C9484010C9484010C94D6180C94AA1995
:100030000C9425140C9484010C9484010C94840178
:100040000C9484010C9484010C9484010C9484011C
:100050000C9484010C947C140C9484010C94840101
:100060000C9484010C9484010C9484010C948401FC
:100070000C9484010C9484010C9484010C948401EC
:100080000C9484010C9484010C9484010C948401DC
:100090000C9484010C9484010C9484010C948401CC
:1000A0000C9484010C9484010C94840100002900B8
:1000B0001E001F00200021002200230000002B0052
:1000C00014001A0008001500170024006800E10061
:1000D00004001600070009000A0025006900E0007E
:1000E0001D001B0006001900050026006A002800FC
:1000F0000151E20000002C00000027000000010078
:100100003A003B003C003D003E003F000000010083
:10011000130012000C0018001C0040000100010038
:1001200033000F000E000D000B0041000100010024
:10013000E30010001100450044004200005C010093
:100140000100010000000100000043001E036500E3
:100150007400650072006E0061006C005F006B004F
:100160006500790070006100640000000E03640007
:10017000750063006B00790062000000040309044D
:1001800009023B00020100A0FA090400000103017A
:100190000100092111010001224000070581030827
:1001A000000A0904010001030000000921110100F7
:1001B00001226D000705820320000A1201000200DF
:1001C000000008EDFE000001000102000105010928
:1001D00080A101850319012AB700150126B70095F2
:1001E0000175108100C0050C0901A10185041901E8
:1001F0002AA002150126A002950175108100C005F4
:10020000010906A1018505050719E029E715002563
:10021000019508750181020507190029EF150025D0
:100220000195F075018102050819012905950575EB
:10023000019102950175039101C005010906A10113
:10024000050719E029E715002501950875018102C8
:100250009501750881010507190029FF150026FF82
:100260000095067508810005081901290595057591
:10027000019102950175039101C011241FBECFEFBA
:10028000DAE0DEBFCDBF04B603FE27C080915C027A
:1002900090915D02A0915E02B0915F028730904B19
:1002A000A740B04BD1F410925C0210925D02109204
:1002B0005E0210925F0214BE84B7877F84BF0FB6C0
:1002C000F894A895809160008861809360001092F6
:1002D00060000FBEE0E0F8E3099511E0A0E0B1E0B6
:1002E000EEEAF7E302C005900D92AC37B107D9F7FB
:1002F00022E0ACE7B1E001C01D92AC35B207E1F7F6
:100300000E94A9100C94B11B0C94000081E0089588
:1003100081E008950C94880108950C948C011F933A
:10032000CF93DF9300D000D00F92CDB7DEB74983D3
:100330005A836B8330917E0189819A8131111DC06E
:100340006623B9F02223A9F00E949607182F682F80
:1003500089819A810E94410769817A81812F0F905A
:100360000F900F900F900F90DF91CF911F910C94F1
:100370002C0E0E946E07182FEFCF0E9496076981FE
:100380007A81EDCFFC01262F4081518162817381FA
:1003900084810C948F0181E00895CF93DF93EC0169
:1003A00060E00E94C201BE01DF91CF910C948D01EB
:1003B0000E94390F0E9449020C945E0F0C94610F49
:1003C00008950E94EA050E94E0012FEF84E39CE07B
:1003D000215080409040E1F700C000000C94A01430
:1003E0000F931F93CF93DF938C0161E00E94C201B2
:1003F000EC01B8010E948A018823A9F1B801CE015D
:100400000E942011882379F1B801CE010E94721157
:10041000882349F1B801CE010E949512882319F171
:10042000F8018281882361F0CB35FDE5DF0721F1FA
:1004300070F4C115ECE5DE07A1F0CF3DDC45C9F055
:10044000C801DF91CF911F910F910C948601CC359B
:100450008DE5D807A1F0CD35DD4591F70E94FB0A67
:10046000EFCF0E94E10180E0DF91CF911F910F91CA
:1004700008950E94650CF7CF0E94040BE1CF0E9403
:10048000070BDECF08950C94420281E008950C948E
:1004900045020895CF93C82F0E9443028C2FCF911D
:1004A0000C944702CF93DF93CDB7DEB72B970FB6EF
:1004B000F894DEBF0FBECDBF4F83588769877A8718
:1004C0008B8761110E942A0B1E821D8285E0FE012E
:1004D0003796DE01119601900D928A95E1F78C8195
:1004E0009D81892B89F449815A816B817C818D8121
:1004F0009E810E942A0A2B960FB6F894DEBF0FBE8B
:10050000CDBFDF91CF91089589819A8189238F3F53
:1005100051F3CE0101960E94CB018111E4CFEBCFC4
:10052000FC01808191810C94D807CF93C82F882338
:1005300009F483C08238C1F40E94C41281FD7DC0D9
:1005400089E30E94C40A0E944D0B2FEF81EE94E0D4
:10055000215080409040E1F700C0000089E30E94F4
:10056000CB0ACF910C944D0B8338A1F40E94C41296
:1005700080FD63C083E50E94C40A0E944D0B2FEFEB
:1005800081EE94E0215080409040E1F700C00000EF
:1005900083E5E5CF8438A1F40E94C41282FD4DC0EA
:1005A00087E40E94C40A0E944D0B2FEF81EE94E075
:1005B000215080409040E1F700C0000087E4CFCF99
:1005C0008CEF8C0F813A90F46C2F80910001909108
:1005D00001010E942A13882329F08C2F0E94CB0A44
:1005E0000E944D0B8C2F0E94C40ABBCF80E28C0F5F
:1005F000883048F4C77081E001C0880FCA95EAF7D7
:100600000E940D0BAECFEBE5EC0FE33040F4F0E0D1
:10061000E55CFE4F808190E0CF910C94EA12C85ABD
:10062000C73158F4EC2FF0E0EE0FFF1FE35FFE4FF1
:1006300080819181CF910C940013CF9108958823EC
:1006400009F44BC0823871F40E94C41281FF45C086
:1006500089E30E94C40A0E944D0B89E30E94CB0AE1
:100660000C944D0B833859F40E94C41280FF35C09E
:1006700083E50E94C40A0E944D0B83E5EFCF8438C6
:1006800059F40E94C41282FF28C087E40E94C40A61
:100690000E944D0B87E4E2CF9CEF980F913AF0F265
:1006A00090E2980F983050F4877091E001C0990F54
:1006B0008A95EAF7892F0E94130BD2CF9BE5980FFA
:1006C000933020F490E080E00C94EA12885A87314D
:1006D00020F490E080E00C94001308951F93CF93D2
:1006E000DF93182FEB010E949502209731F4812FA0
:1006F000DF91CF911F910C941F038FE99FE0019729
:10070000F1F700C000002197F0CF70E060E089337E
:1007100011F460E570E00C946E03882321F00E94D0
:100720000D0B0C944D0B0895882321F00E94130BA0
:100730000C944D0B0895BF92CF92DF92EF92FF92EF
:100740000F931F93CF93DF936C01D62FC72FFC011C
:100750001281058102950F700E94E20AE82E88231B
:10076000A1F0E12E112389F08C2F807F803429F0B5
:1007700080E28D0FE12C883040F082E00E949E0BD9
:100780000E94E20A91E0E82EE926BC2EB2949FE096
:10079000B922FBE0FB1598F1EB2DF0E0ED54F44E9F
:1007A0000C945C1B0C2F0F70C07F11F00295007F22
:1007B0001123A9F0002359F080E28D0F883010F04A
:1007C000D11109C0802F0E940D0B0E944D0B8D2F5F
:1007D0000E94950214C0802F0E941D0BF6CF8D2F12
:1007E0000E941F03002359F080E28D0F883010F023
:1007F000D1112CC0802F0E94130B0E944D0B2B2D6A
:100800002850330B2430310520F40E94C4120E947A
:100810004A02EE2009F483C10E94DE0A80FD7FC1F6
:10082000F60112820E94D80A0E94A506C6010E9403
:10083000B0050E94D80ADF91CF911F910F91FF90D0
:10084000EF90DF90CF90BF900C94C606802F0E944F
:10085000230BD3CF2C2F2F70F22EC07FC03219F074
:10086000F29480EFF822DD2369F0D13049F11123B1
:1008700091F1002351F1F601858180FFA8CF8F709F
:10088000858323C0112381F0011106C00E94300B23
:100890008F290E948D03B3CF0130C1F70E94300B26
:1008A0008F290E94360BABCF011106C00E94430B6B
:1008B0008F2D0E949403A3CF013009F4A0CFF6CF6F
:1008C000112329F0063008F09ACF8F2DE2CF0530A2
:1008D00008F095CFEDCF002359F3D93349F4FFEF5A
:1008E00027EE33E0F15020403040E1F700C0000037
:1008F0008D2F0E941F0383CF8C2F86958695837042
:1009000069F0813009F07BCF8D2F9C2F93701111EE
:1009100002C090E080E00E94001371CF8D2F9C2FC9
:100920009370111102C090E080E00E94EA1267CF3C
:100930008C2F837009F041C0111161CF4D2F42956A
:1009400046954770440F440F0D2F0F7010E030E0B4
:1009500020E0042E04C0000F111F221F331F0A9431
:10096000D2F760E070E0CB01D4FF0FC06FE070E021
:1009700080E090E004C0660F771F881F991F4A959A
:10098000D2F76095709580959095C695C695C37081
:10099000602B712B822B932BC23049F058F4C1305D
:1009A00019F00E9457062BCF0E94450628CF0E94BF
:1009B000690625CF0E94430622CF8695112311F0A8
:1009C0008C2F8170882309F41ACF4D2F42954695BC
:1009D0004770440F440F0D2F0F7010E030E020E0FF
:1009E000042E04C0000F111F221F331F0A94D2F7D8
:1009F00060E070E0CB01D4FF0FC06FE070E080E0FA
:100A000090E004C0660F771F881F991F4A95D2F7A0
:100A10006095709580959095C695C695C370602B2E
:100A2000712B822B932BC23049F058F4C13019F04E
:100A30000E941C07E4CE0E940A07E1CE0E942E0706
:100A4000DECE0E947F06DBCECF70112329F08C2FE3
:100A50000E94A5068D2F1DCF8D2F0E9494038C2FF1
:100A60000E94C606CCCED23F89F160F4D03FC9F0D7
:100A7000D13F29F1112309F442C00111A8CE8C2FD6
:100A80008F7121C0D33F39F1D43FA1F7112369F110
:100A9000CF718C2F0E94A50663E08C2F0E94830BE0
:100AA000AECE112341F0053008F0A9CE8C2F8F7106
:100AB0000E94E906A4CE063008F0A1CEF7CF8C2F15
:100AC0008F71112369F20E94A50699CE8C2F8F7128
:100AD0001123C9F3C5CF112329F08C2F8F710E94E8
:100AE00090068DCE0E948B068ACE81E00E949E0BDE
:100AF000023008F484CE82E00E949E0B80CE002358
:100B000059F0D93309F0F4CE8FEF97EEE3E081503E
:100B10009040E040E1F7EACE8C2F8F71A1CFDF91BA
:100B2000CF911F910F91FF90EF90DF90CF90BF90EA
:100B300008950F931F93CF93DF93EC016881798120
:100B40008A810E94E2078C010E9440070E944206AF
:100B5000B801CE01DF91CF911F910F910C949B03AF
:100B6000CF93DF93EC018B819C81892B29F08881C5
:100B7000998189238F3F59F4DF91CF910895CE0158
:100B80000E949905CE01DF91CF910C94CD01CE0149
:100B90000E94F0018111F3CF0E94E20A882361F3E1
:100BA0008A81882349F382E0DF91CF910C949E0BD8
:100BB00090E080E00E94EA1290E080E00E94001342
:100BC0000E942A0B0E942D0B0C944D0B0E94D20AFE
:100BD0000C94D8050E941A0B0C94E605E92FE295B7
:100BE000EF70E250EE3070F4F0E0E154F44E0C940B
:100BF0005C1B803F19F020F4883E20F481E00895CA
:100C0000843FE1F380E00895883EC0F3813FD1F74F
:100C1000F5CF93FB882780F90895FC0180819181AD
:100C20000E94D8070C94EE05CF93DF9300D000D03C
:100C30000F92CDB7DEB70F900F900F900F900F90DF
:100C4000DF91CF910895CF93DF9300D000D000D0F3
:100C5000CDB7DEB726960FB6F894DEBF0FBECDBF78
:100C6000DF91CF91089508950C9433060E943406C5
:100C700060939C0170939D0180939E0190939F01CE
:100C80000C94D80508950C9436060F931F93009189
:100C90009C0110919D0120919E0130919F01602B3C
:100CA000712B822B932B1F910F910C9436060F936F
:100CB0001F9300919C0110919D0120919E01309104
:100CC0009F0160237123822393231F910F910C9422
:100CD00036060F931F9300919C0110919D01209166
:100CE0009E0130919F0160277127822793271F91D2
:100CF0000F910C9436060C9433060C947B060E94DC
:100D00007D06609398017093990180939A01909366
:100D10009B010C94D80560E070E0CB010C947F0639
:100D20000F931F9341E050E060E070E08A019B0167
:100D300004C0000F111F221F331F8A95D2F7C9016B
:100D4000B8011F910F910C947F060F931F9341E000
:100D500050E060E070E004C0440F551F661F771F2D
:100D60008A95D2F78091980190919901A0919A016A
:100D7000B0919B018A019B01082B192B2A2B3B2B3D
:100D8000C901B8011F910F910C947F060F931F9317
:100D900041E050E060E070E004C0440F551F661F62
:100DA000771F8A95D2F7CB01BA016095709580952F
:100DB0009095009198011091990120919A0130919C
:100DC0009B0160237123822393231F910F910C9425
:100DD0007F060F931F9341E050E060E070E004C095
:100DE000440F551F661F771F8A95D2F7809198018F
:100DF00090919901A0919A01B0919B018A019B0168
:100E0000082719272A273B27C901B8011F910F91ED
:100E10000C947F060F931F930091980110919901F4
:100E200020919A0130919B01602B712B822B932B87
:100E30001F910F910C947F060F931F9300919801BF
:100E40001091990120919A0130919B0160237123A7
:100E5000822393231F910F910C947F060F931F936E
:100E6000009198011091990120919A0130919B0174
:100E700060277127822793271F910F910C947F067B
:100E80000895990F990F990F890F982F977041E046
:100E900001C0440F9A95EAF786958695869595E068
:100EA000899FF0011124E158FE4F30E020E070E00E
:100EB0005191DF011197CB01022E02C096958795C3
:100EC0000A94E2F7817081958527842385278C9386
:100ED0002F5F3F4F2530310559F70895990F990F2E
:100EE000990F890F982F977086958695869525E09E
:100EF000829FF0011124E158FE4F50E040E080E075
:100F0000219130E0092E02C0369527950A94E2F728
:100F100021703327042E01C0220F0A94EAF7822B96
:100F20004F5F5F4F4530510559F70895BF92CF92FB
:100F3000DF92EF92FF920F931F93CF93DF938C0179
:100F4000C0909801D0909901E0909A01F0909B0197
:100F500080919C0190919D01A0919E01B0919F0173
:100F6000C82AD92AEA2AFB2ACFE1D0E0BC2ED70131
:100F7000C6010C2E04C0B695A795979587950A943F
:100F8000D2F780FD0EC0219788F7B12C8B2DDF9111
:100F9000CF911F910F91FF90EF90DF90CF90BF9076
:100FA0000895B8018C2F0E94410E019761F3EECF96
:100FB000CF93DF93EC010E949607BE01DF91CF91A2
:100FC0000C94410E1F93CF93DF93EB0190917E0120
:100FD000992331F0CB01DF91CF911F910C94D80769
:100FE000882379F0CB010E949607182F682FCE0135
:100FF0000E944107BE01812FDF91CF911F910C9478
:10100000410ECB010E946E07182FF4CF1F93CF9390
:10101000DF93C091A00116E08091A1018C1304C060
:10102000DF91CF911F910895D0E01C9FF0011D9F8B
:10103000F00D1124EE55FE4F408151816281738184
:10104000848195810E9423062196C770E5CF409147
:10105000D2015091D3016091D4017091D50180915A
:10106000D6019091D7010C9423061F93CF93DF9361
:101070008091D701807FA9F48091D401882389F0E1
:101080008091A001C091A1016091D2017091D30122
:10109000A091D501B091D601D62FD72316E0C81361
:1010A00004C0DF91CF911F91089590E0109711F047
:1010B000DF3F19F401968770F2CF189F9001199FB6
:1010C000300D1124F901EE55FE4F41814713F2CF47
:1010D00040814613EFCF42814111ECCF43815481CF
:1010E0004A1B5B0B483C510528F78091D7018F7054
:1010F00080618093D701F901E955FE4F80818F709F
:101100008061808382ED91E00E94B005DF91CF91F4
:101110001F910C940608AF92BF92CF92DF92EF928C
:10112000FF920F931F93CF93DF93CDB7DEB76197F5
:101130000FB6F894DEBF0FBECDBF8C0185E0F8017D
:10114000DE011D9601900D928A95E1F7F801E2808B
:1011500082EDC82E81E0D82E6091D5017091D60124
:101160006115710509F45AC19091D2012091D30102
:10117000892F82238F3F09F451C140815181A3807F
:10118000B480F090D401F501E61BF70BFF2009F4C1
:10119000F6C08091D701382F307FE83CF10508F088
:1011A000AFC0311179C0FE2C251323C0941321C088
:1011B000E1101FC08F7080618093D7010E942708C3
:1011C000C6010E94B0058091D701F80185838F2D5B
:1011D00061960FB6F894DEBF0FBECDBFDF91CF9101
:1011E0001F910F91FF90EF90DF90CF90BF90AF9045
:1011F0000895AB2829F0842F85238F3F09F027C15C
:1012000080E0F82FF170DF2E80FF3CC08091A001BC
:101210002091A10136E0821315C04D875E878D8530
:101220009E850E94D807292F22952F702230F0F03A
:10123000243018F59F70F1F0F8019581907FD1F47A
:10124000D12C1EC090E0389FF001399FF00D112481
:10125000EE55FE4F6181651306C06081641303C0C3
:101260006281E6120FC001968770D5CF9F7011F092
:10127000882331F3805E883018F3C8010E94B005DE
:10128000FD2CA5CFEE2009F4A2CF8091D70181607B
:101290008093D701F12C9BCF251306C0941304C073
:1012A000F801EE2009F487C0C8010E940D068823CA
:1012B00019F1EE2009F18091D701803270F0209170
:1012C000D2013091D30138872F831986BB86AA8635
:1012D0008C87CE0107960E94B00586E0F801A2ED4A
:1012E000B1E001900D928A95E1F70E9435080E94C5
:1012F0002708FF24F3946BCFC8010E94B005F9CFF3
:10130000311113C07A2DB98AA88A6E2D89890E945D
:10131000140682ED91E00E94B00586E0F60111927C
:101320008A95E9F70E942708B5CF25130FC09413BB
:101330000DC0E1100BC0F8018583C8010E94B00503
:1013400086E0F60111928A95E9F741CFC8010E9423
:101350000D06882389F2EE2079F28091D701803240
:1013600008F4BBCF2091D2013091D3013A83298375
:101370001B82BD82AC828E83CE010196ACCFE83C4D
:10138000F10508F03EC0FE2CEE2009F4B5CF251380
:101390002AC0941328C08091D70180FD1BC0982FCC
:1013A000907FC1F0F8018583903F31F0982F907FB6
:1013B000905F8F70892B8583C8010E94B00586E0FD
:1013C000F801A2EDB1E001900D928A95E1F70E943B
:1013D0002708FDCE86E0F801A2EDB1E001900D9264
:1013E0008A95E1F7F4CEC8010E940D06811175CFF0
:1013F0008091D70181608093D701C8010E94B00518
:10140000E6CE7A2DB98AA88A6E2D89890E941406A3
:1014100086E0F60111928A95E9F7D9CFEE2009F41A
:101420006BCFC8010E940D06F82E882309F464CF03
:1014300086E0F801A2EDB1E001900D928A95E1F706
:1014400082ED91E00E9490020E943508C0CF81E0B9
:101450008E25D7CE1F93CF93DF93CDB7DEB72C97D2
:101460000FB6F894DEBF0FBECDBF4F835887698794
:101470007A878B879C87CE0107960E948B088823EA
:1014800069F08A859B85892B39F04F815885842F97
:1014900085238F3F09F071C016E05FC086E0FE0132
:1014A0003796DE01119601900D928A95E1F78A85B3
:1014B0009B85892B89F38F81988589238F3F61F3E1
:1014C0002091A10130E0C9010196877099274091D0
:1014D000A0014817190671F40E94EA051092A101B3
:1014E0001092A00186E0E2EDF1E0DF011D928A9505
:1014F000E9F7D2CF96E0929FD001939FB00D1124CF
:10150000AE55BE4FFE01319601900D929A95E1F7CE
:101510008093A1010E940608BFCF819FC0011124C2
:101520008E559E4F0E948B088823E9F0E091A00120
:101530001E9FF0011124EE55FE4F408151816281C2
:101540007381848195810E9423068091A00190E09F
:101550000196877099278093A0018091A0019091B6
:10156000A1018913DACF2C960FB6F894DEBF0FBE17
:10157000CDBFDF91CF911F91089569857A858B85C5
:101580009C850E94230688CF682F8091000190914E
:1015900001010C94AA13682F809100019091010120
:1015A0000C94B51380910001909101010C94C0132B
:1015B0008091D80185958595859508958091D8016C
:1015C000877008959091D801977081E009F480E0C8
:1015D00008959091400292FB222720F9281751F09C
:1015E00080FB92F99093400280913F0290914002DB
:1015F0000C94E10B08958091400282FB882780F9CA
:1016000091E089270C94E90A81E00C94E90A80E0D2
:101610000C94E90A8091FC0108959091FC01892BBA
:101620008093FC01089580959091FC0198239093FC
:10163000FC0108951092FC0108959091FB01892B03
:101640008093FB01089580959091FB0198239093DE
:10165000FB0108951092FB0108951092FA0108957C
:101660008091D901089508950C94330B9091400214
:1016700092FD08C09091D901981721F08093D9016B
:101680000C94340B08958091D901882329F010928D
:10169000D90180E00C94340B0895E0910001F091A1
:1016A00001018091FC018083E0910001F091010132
:1016B00080819091FB01892B8083E0910001F09162
:1016C000010180819091FA01892B80839091D90149
:1016D000992381F0E0910001F09101018081892B33
:1016E000808380910001909101010E941613811165
:1016F0000E94430B80910001909101010C94D01243
:1017000008950C94800B9091400292FD10C098E0D7
:10171000899F90011124622B6093D8010E94A50635
:101720008091D8018595859585950C94810B0C94B5
:10173000A5061092D80180E00C94810B9091D801FD
:10174000809589238093D801282F277039F4282F7A
:10175000082E000C330B9217130621F490914002CF
:1017600092FF07C08595859585950E94C6060C94C5
:10177000990B08956FEF7FEF90E080E00C949B1B36
:1017800090E080E00E94771B21E0893E9E4F09F0A7
:1017900020E0822F089582E090E00C946F1B83E09C
:1017A00090E00C946F1BCF9384E090E00E946F1B3D
:1017B000C82F82E290E00E946F1B982F8C2FCF9150
:1017C0000895CF93C92F682F84E090E00E947D1B7D
:1017D0006C2F82E290E0CF910C947D1BAB01BC0199
:1017E0008FE090E00C948F1BAB01BC0183E190E093
:1017F0000C948F1B60E070E0CB010C94F40B60E064
:1018000070E0CB010E94EE0B0C94FA0B69EE7EEFB8
:1018100090E080E00E949B1B60E082E090E00E94EC
:101820007D1B60E083E090E00E947D1B10929C0194
:1018300010929D0110929E0110929F0160E084E041
:1018400090E00E947D1B60E082E290E00E947D1BA0
:1018500060E085E090E00E947D1B60E086E090E023
:101860000E947D1B6FEF87E090E00E947D1B40E0AF
:1018700050E0BA0188E090E00E948F1B60E08DE0AC
:1018800090E00E947D1B40E050E0BA0188E190E0CA
:101890000E948F1B60E087E190E00E947D1B40E08A
:1018A00050E0BA018CE190E00E948F1B70E060E094
:1018B00080E290E00E949B1B40E050E0BA0188E18A
:1018C00090E00E948F1B0C94FF0B0C94060C682F69
:1018D0008EE090E00C947D1B0E94611460930702DF
:1018E000709308028093090290930A0260930302A6
:1018F000709304028093050290930602089585B7C1
:10190000806885BF85B7806885BF0895089508956C
:101910000C94860C08950C948A0C0E947F0C8FE125
:101920009FE00E94C4140E94870C0C94880C81E0F4
:1019300008950C94970C089508950E949B0C0C94A4
:101940009C0C0E944C140E940F100C948B0CAF92B4
:10195000BF92CF92DF92EF92FF920F931F93CF939C
:10196000DF93CDB7DEB72A970FB6F894DEBF0FBE70
:10197000CDBF0E942B1081110E946C0C8EEFA82EFF
:1019800081E0B82E10E000E0C02E802F0E94630F8F
:10199000E82EF501F1905F01F81609F44BC0809133
:1019A0000B0281FD0E94690F8F2D8E25D12CFF2403
:1019B000F394982F9F21C9F10E94990C882399F0E4
:1019C000DE82CF82EF2081E009F480E088870E94E8
:1019D00055148160782F9A8789874E815F81688549
:1019E0008A850E945202F801E250FE4F8081F8265B
:1019F000F0820E94C4129091FD01891791F10E941A
:101A0000C4128093FD012A960FB6F894DEBF0FBE74
:101A1000CDBFDF91CF911F910F91FF90EF90DF909D
:101A2000CF90BF90AF900C944A02D394FF0CF8E093
:101A3000DF12BFCF0F5F1F4F0530110509F0A4CF94
:101A40008FEF89838A831B820E9455148160782FCF
:101A50009D838C8349815A816B818D810E945202C2
:101A6000C8CF2A960FB6F894DEBF0FBECDBFDF9168
:101A7000CF911F910F91FF90EF90DF90CF90BF908B
:101A8000AF900895CF93DF930E94450EEC0181152E
:101A900022E59207E8F5811531E5930708F0ACC01F
:101AA000883E910510F5803E910570F5883A9105C4
:101AB00070F4853A910508F078C08130910521F1E4
:101AC000009711F1049700F5D0E0C0E01DC08F3BF6
:101AD0009105D0F7C85AD0E0CC0FDD1FC25CDE4FB5
:101AE0000990D881C02DD4640FC0811540E59407BA
:101AF00008F066C0C11580E4D80708F05EC0CE01CA
:101B00009A9581159F4100F7CE01DF91CF910895FD
:101B1000811536E5930718F5811545E5940708F01A
:101B200083C0C11584E5D80708F079C09C2F96952D
:101B300096959E0123703327C115D34508F461C0E3
:101B4000C1E0D0E002C0CC0FDD1F2A95E2F730E201
:101B5000939FC0011124C82BD92BDA68D5CFC115AA
:101B60008AE5D80778F4C11599E5D90708F066C069
:101B7000C11528E5D20708F4A7CFDC2FCC27C06F0A
:101B8000D06AC2CFCE0190568115904208F09CCF0A
:101B90008D2F8F710E94DC0E90E0982F8827882768
:101BA0009F719C012C2BE90147C0C55AD0E0C45954
:101BB000DE4FC881D0E0D064A7CFDF70D06AA4CF59
:101BC000E4E096958795EA95E1F783702C2F2695AA
:101BD0002695237040E2249F90011124382B8C2FEE
:101BE0008370C1E0D0E002C0CC0FDD1F8A95E2F720
:101BF000C22BD32BDC6888CFD82FCC27C16FD06AFB
:101C000083CFC1E0D0E002C0CC0FDD1F2A95E2F700
:101C100020E2929FC0011124C82BD92BEBCFDC2FDF
:101C2000CC27C46FD06A70CF0E94DC0EC82FD0E0E2
:101C3000DC2FCC27CC27DF71D06266CF8C2F8F7042
:101C40000E94DC0E34E0D695C7953A95E1F7CF7047
:101C50009C2FEC01D06958CFE72FF0E095E0899FE9
:101C6000E00DF11D112483E0EE0FFF1F8A95E1F7CF
:101C7000E60FF11DEE0FFF1FE455FF4F8591949184
:101C800008950E942C0E0C94420D82389105B1F1FA
:101C9000B0F48133910509F475C048F48932910597
:101CA00009F469C08A32910509F473C00895853337
:101CB000910509F459C08933910501F10895833ED6
:101CC0009105A9F138F4803E9105F9F0823E910525
:101CD00049F10895863E9105A9F1873E9105C9F124
:101CE000843E910519F52091400221FF1FC080918B
:101CF0003F0284FD14C087EE90E0089520913F02DA
:101D00002370A1F080EE90E0089520913F0220FD25
:101D100047C03091400230FF09C024FF44C090E02A
:101D200080E004C020913F0222FDF7CF089520916A
:101D30003F0222FD3BC03091400230FDE3CF24FF43
:101D4000F5CFEDCF20913F0223FFF0CF24FDE7CF69
:101D5000D2CF20913F0223FD2CC03091400231FFB1
:101D6000EECF84EE90E0089520913F0225FFDECF74
:101D700089E290E0089520913F0225FFD7CF85E3C7
:101D800090E0089520913F0226FFD0CF8AE290E0B4
:101D9000089520913F0226FFC9CF81E390E0089586
:101DA00089E390E0089583EE90E0089582EE90E05C
:101DB000089586EE90E0089590913F0292FF06C04C
:101DC000282F28712830F9F4877F846093FF06C09C
:101DD000282F28712831F1F4877E846120914002F8
:101DE00020FF06C0382F38713830D9F4877F8160E2
:101DF00021FF06C0282F28712831D1F4877E816108
:101E000094FD877E0895282F24712430F9F68B7F66
:101E10008860DCCF282F2471243101F78B7E886104
:101E2000DDCF382F3171313019F78E7F8860E0CFE8
:101E3000282F2171213121F78E7E8861E1CF80E04A
:101E400008950C94BA0B0E942B108FE39CE9019724
:101E5000F1F700C000000E942B1080E00E94630F89
:101E600080FF04C00E94210F0C94A01408950C94CC
:101E7000230F0E94C00B811102C00E94650C0E94BA
:101E8000CB0B80930B020E94D30B90934002809364
:101E90003F020E94370F0E94CF0B682F70E090E046
:101EA00080E00E94430660919801709199018091B1
:101EB0009A0190919B010C947D0608950C945D0FFE
:101EC00008950C94600FE82FF0E0EA5BFD4F8081ED
:101ED0000895089580EA8A95F1F7089500C008955D
:101EE0000C946A0FF894E82FE295EF70F0E031A1BE
:101EF000282F2F7081E090E001C0880F2A95EAF723
:101F0000982F9095932391A392A1892B82A37894E3
:101F10000895CF93DF93C7E7D1E089918F3F11F008
:101F20000E94720F81E0CC37D807B9F7CFE6D1E035
:101F300089918F3F11F00E94720F81E0C737D80757
:101F4000B9F7DF91CF910895CF92DF92EF92FF9290
:101F50000F931F93CF93DF93EC01D62E062F10E043
:101F6000C80189589E4F7C01FC0180818F3F09F494
:101F70004BC0F894E82FE295EF70F0E091A18F70DC
:101F800021E030E001C0220F8A95EAF7892F822BE9
:101F900081A382A12095282322A378940E946E0F0A
:101FA000EFE6F1E030E020E0C12C51E041914F3FFD
:101FB000A1F1A42FA295AF70B0E090968C9190E023
:101FC0004F7002C0959587954A95E2F780FD25C030
:101FD000852F022E01C0880F0A94EAF7C82A2F5FC6
:101FE0003F4F2830310511F7F70180818F3F11F005
:101FF0000E94720F61E0C11001C060E08D2D0E944F
:10200000700FC00FD11FC882DF91CF911F910F9128
:10201000FF90EF90DF90CF90089580E0DFCF0E9497
:10202000890FA1E4B2E01C92E6E4F2E0108211967E
:102030001C921197118212961C921297128213967B
:102040001C921397138214961C92148285E00E94AE
:1020500072100C94D801FF920F931F93CF93DF93CC
:1020600000D000D00F92CDB7DEB78E010F5F1F4FAB
:1020700085E0F80111928A95E9F7F12C6F2DC801DE
:102080000E94A40FF394F5E0FF12F8CF45E050E072
:10209000B80181E492E00E94621BFF24F394009750
:1020A00009F4F12C892B41F085E0F801A1E4B2E0BC
:1020B00001900D928A95E1F72F2D45E066E472E0DC
:1020C00081E492E00E9473100E94DE018F2D0F9038
:1020D0000F900F900F900F90DF91CF911F910F9164
:1020E000FF9008950895FF920F931F93CF93DF936E
:1020F000F82E092F162FD72FC42F222349F081E065
:1021000080930E020E94551490930D0280930C024E
:1021100080910E028823A1F080910C0290910D0213
:102120000E946D14059760F0EF2DF02FA12FBD2FA9
:10213000CE0FDF2FD11DEC17FD0741F410920E02D8
:10214000DF91CF911F910F91FF90089581918D9311
:10215000F2CF0E94D2130E9415160E942E160E94E2
:1021600040160E949D0CFBCF0F931F93CF93DF93DC
:10217000C42FD22FFC0182818823C9F04093110221
:102180000E9455149093100280930F0280E28C0FEE
:10219000883008F050C0C77081E001C0880FCA9530
:1021A000EAF7DF91CF911F910F910C948D0310915D
:1021B0001102141335C080910F02909110020E94F9
:1021C0006D14883C910560F5C0E2CD0F1D17B9F084
:1021D00080E2810F883040F4177081E001C0880FE1
:1021E0001A95EAF70E949403C83048F481E09D2FC5
:1021F000977001C0880F9A95EAF70E948D03802F8F
:102200000E948503C830B8F4D77081E001C0880F00
:10221000DA95EAF7DF91CF911F910F910C94940317
:1022200080E28C0F883038F4C77081E001C0880FDD
:10223000CA95EAF7EFCFDF91CF911F910F910895E3
:102240000F939C01CB01243F4CE5340759F1A8F4CE
:10225000293DFCE53F0701F12A3D4CE53407D1F16A
:10226000283D3C4591F406E221EE41EE68ED7CE527
:102270000E94B41080E00F910895263FFCE53F07CF
:10228000E9F0B0F0273F3C45F9F0FC01828188235A
:1022900039F110921102EFCF07E225EE45EE69ED1C
:1022A0007CE5E6CF06E221EE40EE64EF7CE5E0CF90
:1022B00007E225EE44EE65EF7CE5DACF06E221EE9B
:1022C00042EE66EF7CE5D4CF07E225EE46EE67EFFF
:1022D0007CE5CECF08E221E045EE6AED7CE5C8CF93
:1022E00081E0C9CFCF93DF93EC01FB01828188238A
:1022F00009F419C1C230FCE5DF07C0F1C6319CE525
:10230000D90730F09E012B5F3C452930310570F52F
:102310000E94D30B9093400280933F02C031ECE5C2
:10232000DE0709F4CFC008F05BC0C8308CE5D807E1
:1023300009F4B6C088F5C430ECE5DE0709F4A8C09E
:10234000C0F4C2308CE5D80709F49CC080913F02EC
:102350008260C330DC4509F498C080913F029091BF
:1023600040020E94E10B0E94EA0580E0DF91CF91DC
:10237000089580913F028061C630ECE5DE0709F4E4
:1023800084C080913F028860C730DC4508F47DC07E
:1023900080913F02806279C0CC308CE5D80709F487
:1023A00089C070F480913F028C60CA30ECE5DE0792
:1023B00009F46BC008F478C080913F028E7F65C03D
:1023C000CE308CE5D80709F479C080913F028B7F2D
:1023D000CF30DC4508F459C080913F028F7E55C054
:1023E000CC3FECE5DE0709F457C030F5C3318CE58E
:1023F000D80709F46FC078F4C131ECE5DE0709F4C1
:1024000065C0C231DC4509F0A8CF0E94EA05809181
:102410003F028F773AC0C5318CE5D80709F462C016
:1024200008F476C0809140028160CB3FDC4509F022
:1024300094CF8093400291CFC115FDE5DF0709F4E9
:102440004DC088F4809140028D7FCE3F9CE5D90736
:1024500081F3809140028E7FCF3FDC4550F3809125
:1024600040028360E6CFC230FDE5DF0709F459C0C2
:1024700008F444C080E0C330DD4509F06ECF0E940F
:10248000670C6BCF80913F02816080933F0265CFE4
:1024900080913F028460F9CF809140028260C9CF71
:1024A00080913F028064F1CF0E94EA0580913F0253
:1024B0008068EBCF80913F028D7FE7CF80913F0214
:1024C000877FE3CF80913F028F7DDFCF80913F02F6
:1024D0008F7BDBCF80913F02837FD7CF80914002FB
:1024E0008C7FA7CF80913F0282FB992790F921E052
:1024F000922790FB82F990FB83F9C7CF809140022D
:10250000982F909591708E7F892B90FB81F991CFB8
:102510000E94EA0590913F02892F97FB87F9805826
:10252000B4CF81E0ACCF81E021CFCF93DF93EB013B
:1025300086319C4511F50E940A0B9A81992399F0E6
:102540008A7A91E009F490E090931202811109C017
:1025500089E20E94C40A0E944D0B80E0DF91CF9176
:10256000089585E3F6CF80911202811104C089E2BB
:102570000E94CB0AF0CF85E3FBCF81E0EFCF9093B1
:102580001802809317020895E0911702F091180243
:10259000309721F00190F081E02D099480E00895BA
:1025A000E0911702F0911802309799F020910C01F8
:1025B000222359F020913F0227FF07C0DC012C9114
:1025C00011962C93119725E02C930280F381E02D36
:1025D00009940895209115023091160228173907A1
:1025E00071F09093160280931502E0911702F0911A
:1025F0001802309721F00680F781E02D09940895A4
:1026000020911302309114022817390771F090932A
:10261000140280931302E0911702F0911802309790
:1026200021F00084F185E02D09940895FC01329693
:1026300080910C01882321F080913F029EE187FF69
:1026400096E080E0915008F4089521912223D1F37F
:102650008F5FF8CF662301F120910C012223F1F066
:1026600020913F0227FF1AC0462F46954695469572
:102670004E3190F4677021E030E002C0220F331F2A
:102680006A95E2F7840F911DFC01828190E0282376
:10269000392381E0232B69F480E00895FC01329610
:1026A00008962191261721F0E817F907D1F7F4CF02
:1026B00081E008959C01FC0132969FEF80E04191FA
:1026C000461751F09F3F19F4411101C0982F8F5FB9
:1026D0008630A9F79F3F09F40895290F311D97FD12
:1026E0003A95F90162830895FC013296089621918A
:1026F000261303C0DF0111971C92E817F907B9F7F9
:102700000895E62FE695E695E695EE3168F4E80F34
:10271000F92FF11D677021E030E001C0220F6A95AA
:10272000EAF78281822B82830895E62FE695E6956B
:10273000E695EE3170F4E80FF92FF11D677021E096
:1027400030E001C0220F6A95EAF7209582812823A4
:102750002283089520910C01222329F020913F0229
:1027600027FD0C9481130C945A1320910C01222301
:1027700029F020913F0227FD0C9495130C947413BB
:10278000FC01329680910C01882351F080913F0228
:1027900087FF06C08EE1DF011D928A95E9F7089553
:1027A00086E0F9CF0895089508950C94D41380918C
:1027B0005302843049F10E94D51380E00E944A02FE
:1027C0001092190288E190E020E40FB6F894A895E1
:1027D000809360000FBE2093600083B7817F846088
:1027E00083BF83B7816083BF7894889583B78E7FDA
:1027F00083BF0FB6F894A89580916000886180939C
:102800006000109260000FBE08950895CF930E945B
:10281000D3130E942B100E940514C0E08C2F0E943D
:10282000630F811105C0CF5FC530C1F7CF91089507
:1028300081E0FCCF08950C941A140E94EA050E94CE
:10284000C4120E944A020C941B141F921FB61F92BE
:1028500011248F939F93AF93BF938091190281119D
:1028600013C080914B0290914C02A0914D02B09107
:102870004E024196A11DB11D80934B0290934C02D4
:10288000A0934D02B0934E02BF91AF919F918F9153
:102890001F901FBE1F90189582E084BD93E095BDE8
:1028A0009AEF97BD80936E0008952FB7F8948091AA
:1028B0004B0290914C02A0914D02B0914E022FBF5D
:1028C00008952FB7F89460914B0270914C0280915B
:1028D0004D0290914E022FBF08959C014FB7F8947E
:1028E00080914B0290914C02A0914D02B0914E020A
:1028F0004FBF821B930B089578941F921FB61F92AF
:1029000011248F939F93AF93BF9380914B0290912B
:102910004C02A0914D02B0914E020196A11DB11D35
:1029200080934B0290934C02A0934D02B0934E02C1
:10293000BF91AF919F918F911F901FBE1F901895CF
:1029400081E08093E00080E28093D8001092C9007B
:102950008FE19EE40197F1F700C0000087E090EB63
:10296000DC0180935C0290935D02A0935E02B093C1
:102970005F0288E19CE00FB6F894A8958093600010
:102980000FBE90936000FFCF90937D0180937C01F8
:10299000089580913D02089590915302943031F54D
:1029A00080931A0270931C0260931B0282E0809352
:1029B000E9008FEF9091E800815095FD06C095EDFC
:1029C0009A95F1F700008111F5CF8091E80085FF1D
:1029D0000DC050E040E063E070E08AE192E00E94C8
:1029E000CB168091E8008E778093E8000895BC01B3
:1029F00084E00C94CC14BC0183E00C94CC14CF93F1
:102A0000DF93EC0180910C018823B1F180913F02AA
:102A100087FF32C060E282E08093E9008FEF9091FF
:102A2000E800815095FD06C095ED9A95F1F70000FC
:102A30008111F5CF8091E80085FF1BC080910C01CA
:102A400070E050E040E0811104C050E040E068E0F8
:102A500070E0CE010E94CB168091E8008E778093C3
:102A6000E80080E2FE01ADE1B2E001900D928A95AE
:102A7000E1F7DF91CF91089568E081E0CDCF08952F
:102A800080915202811109C00E945B180E94B818FF
:102A90008091E20084608093E200089510925202D7
:102AA000089508950895089542E061EC81E00E9440
:102AB000D71742E261EC82E00C94D717809155025F
:102AC000833009F45FC030F48130C1F1823009F401
:102AD0009BC008958A3009F487C08B3009F46DC01B
:102AE000893009F04EC080915402813209F049C00A
:102AF0008091580290915902029708F042C080914B
:102B0000E800877F8093E8008091E80082FF35C06D
:102B10009091F3008091F200029729F48091F100E6
:102B20008B7F813021F48091F10080933D02809170
:102B3000E8008B778093E8000C940B188091540286
:102B4000813AF9F48091E800877F8093E8008091D2
:102B5000580290915902892B61F460E28DE192E074
:102B600070E00E941A178091E8008B778093E8004C
:102B7000089560E090E080E0F3CF809153028111EE
:102B8000C3CF089580915402813AD9F780915802B9
:102B900090915902892BA9F78091E800877F809353
:102BA000E8008091E80080FFFCCF80910C018093C9
:102BB000F1008091E8008E77BDCF80915402813280
:102BC00001F78091580290915902892BD1F680919A
:102BD000E800877F8093E8000E940B1880915602DE
:102BE00080930C010C94EA0580915402813249F6DD
:102BF0008091E800877F8093E8000E940B18809105
:102C0000570280933E02089580915402813A09F060
:102C1000B8CF8091E800877F8093E8008091E8003A
:102C200080FFFCCF80913E02C2CF84B7877F84BFF4
:102C30000FB6F894A8958091600088618093600039
:102C4000109260000FBE80E890E00FB6F894809379
:102C50006100909361000FBE0C948D0C0E945B1874
:102C60000E94B818E2EEF0E080818460808378945E
:102C70000E94411B0E94A10C82E091E00C94BF12C3
:102C800080915302853031F480915302853021F0D8
:102C90000E941D140C94A70C0E94D713809151021E
:102CA000882391F30E940614882371F30E94B516BD
:102CB0000E94EA05E9CF0C945D16292F33272330B3
:102CC000310519F168F42130310509F444C022308E
:102CD000310509F445C090E080E030E020E025C0F7
:102CE0002132310549F122323105A9F780E490E023
:102CF0002AE332E061157105C1F08DE690E02DEC1C
:102D000031E06130710589F0E6CF99278130910576
:102D100081F0009729F00297F1F6ECE4F1E002C0AF
:102D2000ECE7F1E0849190E09F01FA013183208388
:102D30000895ECE6F1E0F6CF89E090E022E931E099
:102D40006115710591F389E090E02BEA31E0613083
:102D5000710559F3C0CF82E190E02BEB31E0E5CF74
:102D60008BE390E020E831E0E0CF80E189BD82E1B3
:102D700089BD09B400FEFDCF8091D8008F7D80937E
:102D8000D8008091E00082608093E0008091E000B4
:102D900081FDFCCF0895AF92BF92CF92DF92FF9258
:102DA0000F931F93CF93DF936C01EB018A010E9475
:102DB0002A18F82E811123C00115110539F0F801E8
:102DC00080819181C81BD90BC80ED91EB12CA12CB2
:102DD0002097A9F08091E80085FD22C08091E8004D
:102DE0008E778093E80001151105A1F0F80180812C
:102DF0009181A80EB91EB182A08285E0F82E8F2D98
:102E0000DF91CF911F910F91FF90DF90CF90BF90F6
:102E1000AF9008950E942A188823D1F2F82EEFCFA0
:102E2000F60181916F018093F1002197FFEFAF1AB6
:102E3000BF0ACECFFC0180915A0290915B028617A7
:102E40009707A0F06115710529F49091E8009E772D
:102E50009093E80090E06115710551F4911108C05C
:102E60008091E80082FF34C080E00895BC01F2CF79
:102E7000809153028823C1F18530C1F18091E8002F
:102E800083FD30C08091E80082FDEACF8091E800A8
:102E900080FFE1CF8091F3002091F200382F61157F
:102EA000710519F02830310558F091E028303105CE
:102EB00009F090E02091E8002E772093E800CBCF36
:102EC00081918093F100615071092F5F3F4FE7CFEF
:102ED00080915302882341F0853041F08091E800D1
:102EE00083FFBECF81E0089582E0089583E00895D6
:102EF000FC0180915A0290915B0286179707A0F01F
:102F00006115710529F48091E8008E778093E800BF
:102F100090E06115710551F4911108C08091E800AD
:102F200082FF35C080E00895BC01F2CF809153024A
:102F30008823C9F18530C9F18091E80083FD31C053
:102F40008091E80082FDEACF8091E80080FFE1CF28
:102F50008091F3002091F200382F6115710519F06E
:102F60002830310558F091E02830310509F090E023
:102F70008091E8008E778093E800CBCF8491809396
:102F8000F1003196615071092F5F3F4FE6CF80917C
:102F90005302882341F0853041F08091E80083FF9F
:102FA000BDCF81E0089582E0089583E00895982FD1
:102FB000973028F08F708093E90081E00895909316
:102FC000E900242F762F50E0981731F07091EC0033
:102FD0002091ED005091F00021FD02C09F5FE8CFED
:102FE0003091EB003E7F3093EB003091ED003D7F60
:102FF0003093ED003091EB0031603093EB00709333
:10300000EC002093ED005093F0002091EE0027FD9E
:10301000E5CF80E008958091540287FF13C080912E
:10302000E80082FF06C08091E8008B778093E8007B
:1030300004C0809153028111F2CF08958091530210
:103040008823D9F38091E80080FFF8CF8091E800D1
:103050008E77ECCF2091E4003091E50095E6A90150
:103060002091EC00822F817020FF06C08091E80043
:1030700080FF06C080E008952091E80022FD1AC07C
:1030800080915302882389F0853089F08091EB008C
:1030900085FD0FC02091E4003091E50042175307F1
:1030A000F9F29150E1F684E0089582E0089583E01A
:1030B000089581E008950E94C9180E94D118E0EE99
:1030C000F0E0808181608083E8EDF0E080818F779F
:1030D000808319BCA7EDB0E08C918E7F8C938081AA
:1030E0008F7E80831092520208950F931F93CF9387
:1030F000DF930E94C9180E94D118C8EDD0E08881E2
:103100008F77888388818068888388818F7D888392
:1031100019BC1092530210924F0210925102109259
:10312000500200EE10E0F80180818B7F808388815F
:103130008160888342E060E080E00E94D717E1EE82
:10314000F0E080818E7F8083E2EEF0E0808181601C
:103150008083808188608083F80180818E7F808376
:10316000888180618883DF91CF911F910F910895AD
:10317000E8EDF0E080818F7E8083E7EDF0E08081F4
:103180008160808384E082BF81E0809352020C944E
:103190007518E8EDF0E080818E7F80831092E20068
:1031A00008951092DA001092E10008951F920F9294
:1031B0000FB60F9211242F933F934F935F936F930A
:1031C0007F938F939F93AF93BF93EF93FF938091E0
:1031D000E10082FF0BC08091E20082FF07C0809176
:1031E000E1008B7F8093E1000E94401B8091DA0018
:1031F00080FF19C08091D80080FF15C08091DA004F
:103200008E7F8093DA008091D90080FF96C080E1A4
:1032100089BD82E189BD09B400FEFDCF81E08093C4
:1032200053020E9440158091E10080FF19C08091F7
:10323000E20080FF15C08091E2008E7F8093E20063
:103240008091E20080618093E2008091D8008062EA
:103250008093D80019BC85E0809353020E945215D8
:103260008091E10084FF2BC08091E20084FF27C0A1
:1032700080E189BD82E189BD89B5982F917080FF79
:10328000FBCF8091D8008F7D8093D8008091E100A2
:103290008F7E8093E1008091E2008F7E8093E20038
:1032A0008091E20081608093E20080914F02882348
:1032B00009F449C084E0809353020E945315809121
:1032C000E10083FF29C08091E20083FF25C0809147
:1032D000E100877F8093E10082E0809353021092A7
:1032E0004F028091E1008E7F8093E1008091E200A7
:1032F0008E7F8093E2008091E20080618093E20003
:1033000042E060E080E00E94D7178091F000886082
:103310008093F0000E945115FF91EF91BF91AF9102
:103320009F918F917F916F915F914F913F912F91DD
:103330000F900FBE0F901F90189519BC109253025A
:103340000E944E1570CF8091E30087FD93E090932B
:103350005302B3CF1F920F920FB60F9211242F93E7
:103360003F934F935F936F937F938F939F93AF930D
:10337000BF93CF93DF93EF93FF93D091E900DF707A
:103380008091EC00C82FC17080FDC0E81092E90068
:103390008091F000877F8093F00078940E94EE196E
:1033A0001092E9008091F00088608093F000CD2BAE
:1033B000CF70C093E900FF91EF91DF91CF91BF9162
:1033C000AF919F918F917F916F915F914F913F91BD
:1033D0002F910F900FBE0F901F9018951F93CF93B2
:1033E000DF93CDB7DEB7AA970FB6F894DEBF0FBE56
:1033F000CDBF84E592E02091F100FC012193CF0143
:10340000F2E08C359F07B9F70E945E158091E800C5
:1034100083FF1EC180915402909155029A3008F0AA
:1034200017C1E92FF0E0E353F44E0C945C1B803895
:1034300099F0823809F00CC1809158028F70873062
:1034400008F006C18093E9008091EB0085FB882796
:1034500080F91092E90006C08091500290915102CB
:10346000911182609091E800977F9093E80080939B
:10347000F1001092F1008091E8008E77E5C088237A
:1034800009F4D3C0823009F0E3C080915602811163
:10349000D6C0809158028F702FEF280F263008F089
:1034A000D7C08093E9002091EB0020FFC8C0933083
:1034B00031F48091EB0080628093EB00C0C090916A
:1034C000EB0090619093EB0021E030E001C0220F0F
:1034D0008A95EAF72093EA001092EA008091EB00C7
:1034E0008860EACF8111B4C0109156021F77809195
:1034F000E3008078812B8093E3008091E800877F50
:103500008093E8000E940B188091E80080FFFCCFB8
:103510008091E30080688093E30082E0111183E0F2
:103520008093530295C08058823008F091C08091FA
:103530005602909157028C3D23E09207A1F583E05B
:103540008A838AE289834FB7F894DE01139620E0DC
:103550003EE051E2E32FF0E050935700E49120FF6A
:1035600003C0E295EF703F5FEF708E2F90E0EA307E
:10357000C0F0C7968D939D932F5F243159F74FBFAD
:103580008091E800877F8093E8006AE270E0CE01D6
:1035900001960E941A178091E8008B778093E800CB
:1035A00057C0C096E7CF6091580270915902AE01A2
:1035B0004F5F5F4F0E945B16BC01892B09F448C026
:1035C0009091E800977F9093E80089819A810E940A
:1035D0007817E1CF8038E1F58091E800877F80930C
:1035E000E80080914F028093F10045CF811130C0F7
:1035F00090915602923060F58091E800877F809329
:10360000E80090934F020E940B1880914F0288238C
:1036100011F084E005C08091E30087FDFACF81E0DE
:10362000809353020E94541513C08091560281303A
:1036300079F481E0933009F080E080935102109298
:10364000E9008091E800877F8093E8000E940B18D2
:103650008091E80083FF0AC08091E800877F809313
:10366000E8008091EB0080628093EB00AA960FB691
:10367000F894DEBF0FBECDBFDF91CF911F910895AB
:103680000895CF93809153028823A1F0C091E9005F
:10369000CF709091EC00892F817090FD80E8C82B4D
:1036A0001092E9008091E80083FD0E94EE19CF702E
:1036B000C093E900CF910895EE0FFF1F0590F4919C
:1036C000E02D0994FB01DC0104C08D91019080196B
:1036D00021F441505040C8F7881B990B0895F9997F
:1036E000FECF92BD81BDF89A992780B50895A8E1D3
:1036F000B0E042E050E00C94A31B262FF999FECFD6
:1037000092BD81BDF89A019700B4021639F01FBA34
:1037100020BD0FB6F894FA9AF99A0FBE0895039651
:10372000272F0E947E1B0E947D1B252F0E947E1B3F
:10373000242F0C947E1B0196272F0E947E1B0C9435
:103740007D1BDC01CB01FC01F999FECF06C0F2BD67
:10375000E1BDF89A319600B40D9241505040B8F74F
:103760000895F894FFCFD203D2032A042A047C04DC
:10377000FF03FF03FF039804240533053305F90510
:10378000F905020602060406020602060206F9050B
:10379000F9050906020602060906171A3F1A281B30
:0E37A0003F1A281B721A931A281BEA1AF61AEF
:1037AE00DA01C914FF143F15FB14F71401E200E906
:1037BE0000EA00B500B600B700CD008301CC008A48
:1037CE0001920194012102230224022502260227DE
:1037DE00022A02B300B4006F007000818283E200FF
:1037EE00E900EA00B500B600B700CD008301CC00B9
:1037FE008A0192019401210223022402250226024B
:10380E0027022A02B300B4006F0070008182833653
:0C381E00323331F7F6F5F43534C6976606
:00000001FF
